{
  "_format": "hh-sol-artifact-1",
  "contractName": "Voting",
  "sourceName": "contracts/Voting.sol",
  "abi": [
    {
      "anonymous": false,
      "inputs": [
        {
          "indexed": false,
          "internalType": "string",
          "name": "name",
          "type": "string"
        },
        {
          "indexed": false,
          "internalType": "uint256",
          "name": "votes",
          "type": "uint256"
        },
        {
          "indexed": false,
          "internalType": "uint256",
          "name": "id",
          "type": "uint256"
        },
        {
          "indexed": false,
          "internalType": "uint256",
          "name": "electionId",
          "type": "uint256"
        },
        {
          "indexed": false,
          "internalType": "address",
          "name": "wallet",
          "type": "address"
        }
      ],
      "name": "AddCandidate",
      "type": "event"
    },
    {
      "anonymous": false,
      "inputs": [
        {
          "indexed": false,
          "internalType": "string",
          "name": "name",
          "type": "string"
        },
        {
          "indexed": false,
          "internalType": "uint256",
          "name": "numberOfCandidates",
          "type": "uint256"
        },
        {
          "indexed": false,
          "internalType": "uint256",
          "name": "id",
          "type": "uint256"
        },
        {
          "indexed": false,
          "internalType": "uint256",
          "name": "dateOfCreation",
          "type": "uint256"
        },
        {
          "indexed": false,
          "internalType": "uint256",
          "name": "dateOfClose",
          "type": "uint256"
        }
      ],
      "name": "CreateElection",
      "type": "event"
    },
    {
      "anonymous": false,
      "inputs": [
        {
          "indexed": false,
          "internalType": "address",
          "name": "user",
          "type": "address"
        }
      ],
      "name": "Register",
      "type": "event"
    },
    {
      "anonymous": false,
      "inputs": [
        {
          "indexed": false,
          "internalType": "address",
          "name": "user",
          "type": "address"
        },
        {
          "indexed": false,
          "internalType": "uint256",
          "name": "_electionId",
          "type": "uint256"
        },
        {
          "indexed": false,
          "internalType": "uint256",
          "name": "_candidateId",
          "type": "uint256"
        }
      ],
      "name": "RegisterVoting",
      "type": "event"
    },
    {
      "inputs": [
        {
          "internalType": "string",
          "name": "_name",
          "type": "string"
        },
        {
          "internalType": "uint256",
          "name": "_electionId",
          "type": "uint256"
        },
        {
          "internalType": "address",
          "name": "_walletAddress",
          "type": "address"
        }
      ],
      "name": "addCandidate",
      "outputs": [],
      "stateMutability": "nonpayable",
      "type": "function"
    },
    {
      "inputs": [
        {
          "internalType": "uint256",
          "name": "",
          "type": "uint256"
        },
        {
          "internalType": "address",
          "name": "",
          "type": "address"
        }
      ],
      "name": "alreadyVotedInThisElection",
      "outputs": [
        {
          "internalType": "bool",
          "name": "",
          "type": "bool"
        }
      ],
      "stateMutability": "view",
      "type": "function"
    },
    {
      "inputs": [
        {
          "internalType": "uint256",
          "name": "",
          "type": "uint256"
        },
        {
          "internalType": "uint256",
          "name": "",
          "type": "uint256"
        }
      ],
      "name": "candidatesByElection",
      "outputs": [
        {
          "internalType": "string",
          "name": "name",
          "type": "string"
        },
        {
          "internalType": "uint256",
          "name": "votes",
          "type": "uint256"
        },
        {
          "internalType": "uint256",
          "name": "id",
          "type": "uint256"
        },
        {
          "internalType": "address",
          "name": "wallet",
          "type": "address"
        }
      ],
      "stateMutability": "view",
      "type": "function"
    },
    {
      "inputs": [],
      "name": "contractBalance",
      "outputs": [
        {
          "internalType": "uint256",
          "name": "",
          "type": "uint256"
        }
      ],
      "stateMutability": "view",
      "type": "function"
    },
    {
      "inputs": [
        {
          "internalType": "string",
          "name": "_name",
          "type": "string"
        }
      ],
      "name": "createElection",
      "outputs": [],
      "stateMutability": "nonpayable",
      "type": "function"
    },
    {
      "inputs": [
        {
          "internalType": "uint256",
          "name": "",
          "type": "uint256"
        }
      ],
      "name": "elections",
      "outputs": [
        {
          "internalType": "string",
          "name": "name",
          "type": "string"
        },
        {
          "internalType": "uint256",
          "name": "numberOfCandidates",
          "type": "uint256"
        },
        {
          "internalType": "uint256",
          "name": "id",
          "type": "uint256"
        },
        {
          "internalType": "uint256",
          "name": "dateOfCreation",
          "type": "uint256"
        },
        {
          "internalType": "uint256",
          "name": "dateOfClose",
          "type": "uint256"
        }
      ],
      "stateMutability": "view",
      "type": "function"
    },
    {
      "inputs": [],
      "name": "feeToVote",
      "outputs": [
        {
          "internalType": "uint256",
          "name": "",
          "type": "uint256"
        }
      ],
      "stateMutability": "view",
      "type": "function"
    },
    {
      "inputs": [
        {
          "internalType": "uint256",
          "name": "_number",
          "type": "uint256"
        }
      ],
      "name": "initialize",
      "outputs": [],
      "stateMutability": "nonpayable",
      "type": "function"
    },
    {
      "inputs": [
        {
          "internalType": "uint256",
          "name": "",
          "type": "uint256"
        }
      ],
      "name": "numberOfCandidatesByElection",
      "outputs": [
        {
          "internalType": "uint256",
          "name": "",
          "type": "uint256"
        }
      ],
      "stateMutability": "view",
      "type": "function"
    },
    {
      "inputs": [],
      "name": "numberOfElections",
      "outputs": [
        {
          "internalType": "uint256",
          "name": "",
          "type": "uint256"
        }
      ],
      "stateMutability": "view",
      "type": "function"
    },
    {
      "inputs": [],
      "name": "owner",
      "outputs": [
        {
          "internalType": "address",
          "name": "",
          "type": "address"
        }
      ],
      "stateMutability": "view",
      "type": "function"
    },
    {
      "inputs": [],
      "name": "register",
      "outputs": [],
      "stateMutability": "payable",
      "type": "function"
    },
    {
      "inputs": [
        {
          "internalType": "address",
          "name": "",
          "type": "address"
        }
      ],
      "name": "userRegistered",
      "outputs": [
        {
          "internalType": "bool",
          "name": "",
          "type": "bool"
        }
      ],
      "stateMutability": "view",
      "type": "function"
    },
    {
      "inputs": [
        {
          "internalType": "uint256",
          "name": "_electionId",
          "type": "uint256"
        },
        {
          "internalType": "uint256",
          "name": "_idOfCandidate",
          "type": "uint256"
        }
      ],
      "name": "vote",
      "outputs": [],
      "stateMutability": "nonpayable",
      "type": "function"
    },
    {
      "inputs": [],
      "name": "withdraw",
      "outputs": [],
      "stateMutability": "payable",
      "type": "function"
    }
  ],
  "bytecode": "0x608060405234801561001057600080fd5b506111b0806100206000396000f3fe6080604052600436106100e85760003560e01c80638b7afe2e1161008a578063bccbc36c11610059578063bccbc36c1461028e578063c235b3d5146102be578063cdc389f6146102de578063fe4b84df146102f457600080fd5b80638b7afe2e146101f45780638da5cb5b14610209578063b1b2fafa14610241578063b384abef1461026e57600080fd5b80633ef501a1116100c65780633ef501a11461011f5780635e6fef011461016f57806373963a9f146101a057806386cf8257146101d057600080fd5b806315cf4a5f146100ed5780631aa3a0081461010f5780633ccfd60b14610117575b600080fd5b3480156100f957600080fd5b5061010d610108366004610ea4565b610314565b005b61010d61043b565b61010d610546565b34801561012b57600080fd5b5061015a61013a366004610f51565b600460209081526000928352604080842090915290825290205460ff1681565b60405190151581526020015b60405180910390f35b34801561017b57600080fd5b5061018f61018a366004610f38565b61059f565b60405161016695949392919061102c565b3480156101ac57600080fd5b506101c06101bb366004610f7d565b610655565b6040516101669493929190611063565b3480156101dc57600080fd5b506101e660085481565b604051908152602001610166565b34801561020057600080fd5b506101e661071b565b34801561021557600080fd5b50600754610229906001600160a01b031681565b6040516001600160a01b039091168152602001610166565b34801561024d57600080fd5b506101e661025c366004610f38565b60026020526000908152604090205481565b34801561027a57600080fd5b5061010d610289366004610f7d565b61074d565b34801561029a57600080fd5b5061015a6102a9366004610e82565b60056020526000908152604090205460ff1681565b3480156102ca57600080fd5b5061010d6102d9366004610ee1565b610a00565b3480156102ea57600080fd5b506101e660065481565b34801561030057600080fd5b5061010d61030f366004610f38565b610c69565b6007546001600160a01b031633146103475760405162461bcd60e51b815260040161033e9061109b565b60405180910390fd5b6006805490600061035783611133565b91905055506040518060a001604052808281526020016000815260200160065481526020014281526020014262093a8061039191906110e0565b905260065460009081526003602090815260409091208251805191926103bc92849290910190610d40565b50602082015181600101556040820151816002015560608201518160030155608082015181600401559050507f81bb74d1ba87bb5e5091d0eb0896bd5eb95349a27068e8e1dabdb9363fa4052d816000600654424262093a8061041f91906110e0565b60405161043095949392919061102c565b60405180910390a150565b3360009081526005602052604090205460ff161561049b5760405162461bcd60e51b815260206004820152601760248201527f5573657220616c72656164792072656769737465726564000000000000000000604482015260640161033e565b60085434146104f65760405162461bcd60e51b815260206004820152602160248201527f596f75206e65656420746f2070617920302e3120657468657220746f20766f746044820152606560f81b606482015260840161033e565b33600081815260056020908152604091829020805460ff1916600117905590519182527feeda149c76076b34d4b9d8896c2f7efc0d33d1c7b53ea3c5db490d64613f603a910160405180910390a1565b6007546001600160a01b031633146105705760405162461bcd60e51b815260040161033e9061109b565b60405133904780156108fc02916000818181858888f1935050505015801561059c573d6000803e3d6000fd5b50565b6003602052600090815260409020805481906105ba906110f8565b80601f01602080910402602001604051908101604052809291908181526020018280546105e6906110f8565b80156106335780601f1061060857610100808354040283529160200191610633565b820191906000526020600020905b81548152906001019060200180831161061657829003601f168201915b5050505050908060010154908060020154908060030154908060040154905085565b600160209081526000928352604080842090915290825290208054819061067b906110f8565b80601f01602080910402602001604051908101604052809291908181526020018280546106a7906110f8565b80156106f45780601f106106c9576101008083540402835291602001916106f4565b820191906000526020600020905b8154815290600101906020018083116106d757829003601f168201915b5050505060018301546002840154600390940154929390929091506001600160a01b031684565b6007546000906001600160a01b031633146107485760405162461bcd60e51b815260040161033e9061109b565b504790565b60008111801561076b57506000828152600260205260409020548111155b6107b75760405162461bcd60e51b815260206004820152601760248201527f43616e64696461746520646f65736e2774206578697374000000000000000000604482015260640161033e565b600082815260046020908152604080832033845290915290205460ff16156108305760405162461bcd60e51b815260206004820152602660248201527f456c6563746f7220616c726561647920766f74656420696e207468697320656c60448201526532b1ba34b7b760d11b606482015260840161033e565b60008181526003602052604090206004015442106108905760405162461bcd60e51b815260206004820152601a60248201527f456c656374696f6e20697320616c726561647920636c6f736564000000000000604482015260640161033e565b3360009081526005602052604090205460ff1615156001146108ed5760405162461bcd60e51b8152602060048201526016602482015275155cd95c881a5cc81b9bdd081c9959da5cdd195c995960521b604482015260640161033e565b60008281526001602090815260408083208484529091529020600301546001600160a01b031633141561096d5760405162461bcd60e51b815260206004820152602260248201527f412063616e6469646174652063616e277420766f746520666f722068696d7365604482015261363360f11b606482015260840161033e565b600082815260016020818152604080842085855290915282200180549161099383611133565b909155505060008281526004602090815260408083203380855290835292819020805460ff19166001179055805192835290820184905281018290527f382ffa2de6036e93f4a269fc7fe444cab05aca8ea259cbd366f7eff9f953d9409060600160405180910390a15050565b6007546001600160a01b03163314610a2a5760405162461bcd60e51b815260040161033e9061109b565b600082118015610a3c57506006548211155b610a885760405162461bcd60e51b815260206004820152601a60248201527f54686520656c656374696f6e20646f65736e2774206578697473000000000000604482015260640161033e565b6000828152600360205260409020600401544210610ae85760405162461bcd60e51b815260206004820152601760248201527f456c656374696f6e20616c726561647920636c6f736564000000000000000000604482015260640161033e565b600082815260026020526040902054600511610b465760405162461bcd60e51b815260206004820152601e60248201527f54686572652061726520616c726561647920352063616e646964617465730000604482015260640161033e565b600082815260026020526040902054610b609060016110e0565b600083815260026020908152604080832084905580516080810182528781528083018490528082018590526001600160a01b03861660608201528684526001835281842085855283529220825180519192610bc092849290910190610d40565b506020828101516001838101919091556040808501516002850155606090940151600393840180546001600160a01b0319166001600160a01b03909216919091179055600087815292909152918120909101805491610c1e83611133565b91905055507f5c45abaed052272bacec7c947b2594bb347b369bc744218d9add25ddf1e548d9846000838686604051610c5b959493929190610fec565b60405180910390a150505050565b600054610100900460ff1680610c82575060005460ff16155b610ce55760405162461bcd60e51b815260206004820152602e60248201527f496e697469616c697a61626c653a20636f6e747261637420697320616c72656160448201526d191e481a5b9a5d1a585b1a5e995960921b606482015260840161033e565b600054610100900460ff16158015610d07576000805461ffff19166101011790555b600780546001600160a01b03191633179055600982905567016345785d8a00006008558015610d3c576000805461ff00191690555b5050565b828054610d4c906110f8565b90600052602060002090601f016020900481019282610d6e5760008555610db4565b82601f10610d8757805160ff1916838001178555610db4565b82800160010185558215610db4579182015b82811115610db4578251825591602001919060010190610d99565b50610dc0929150610dc4565b5090565b5b80821115610dc05760008155600101610dc5565b80356001600160a01b0381168114610df057600080fd5b919050565b600082601f830112610e0657600080fd5b813567ffffffffffffffff80821115610e2157610e21611164565b604051601f8301601f19908116603f01168101908282118183101715610e4957610e49611164565b81604052838152866020858801011115610e6257600080fd5b836020870160208301376000602085830101528094505050505092915050565b600060208284031215610e9457600080fd5b610e9d82610dd9565b9392505050565b600060208284031215610eb657600080fd5b813567ffffffffffffffff811115610ecd57600080fd5b610ed984828501610df5565b949350505050565b600080600060608486031215610ef657600080fd5b833567ffffffffffffffff811115610f0d57600080fd5b610f1986828701610df5565b93505060208401359150610f2f60408501610dd9565b90509250925092565b600060208284031215610f4a57600080fd5b5035919050565b60008060408385031215610f6457600080fd5b82359150610f7460208401610dd9565b90509250929050565b60008060408385031215610f9057600080fd5b50508035926020909101359150565b6000815180845260005b81811015610fc557602081850181015186830182015201610fa9565b81811115610fd7576000602083870101525b50601f01601f19169290920160200192915050565b60a081526000610fff60a0830188610f9f565b602083019690965250604081019390935260608301919091526001600160a01b0316608090910152919050565b60a08152600061103f60a0830188610f9f565b90508560208301528460408301528360608301528260808301529695505050505050565b6080815260006110766080830187610f9f565b60208301959095525060408101929092526001600160a01b0316606090910152919050565b60208082526025908201527f596f7520617265206e6f7420616c6c6f77656420746f20646f2074686973206160408201526431ba34b7b760d91b606082015260800190565b600082198211156110f3576110f361114e565b500190565b600181811c9082168061110c57607f821691505b6020821081141561112d57634e487b7160e01b600052602260045260246000fd5b50919050565b60006000198214156111475761114761114e565b5060010190565b634e487b7160e01b600052601160045260246000fd5b634e487b7160e01b600052604160045260246000fdfea26469706673582212203861d4192a366e972f5058fe51678119fb100f46842d6f71bac9cd12dfb1623564736f6c63430008070033",
  "linkReferences": {},
  "deployedLinkReferences": {}
}