{
  "_format": "hh-sol-artifact-1",
  "contractName": "Voting",
  "sourceName": "contracts/Voting.sol",
  "abi": [
    {
      "inputs": [],
      "stateMutability": "nonpayable",
      "type": "constructor"
    },
    {
      "anonymous": false,
      "inputs": [
        {
          "indexed": false,
          "internalType": "string",
          "name": "name",
          "type": "string"
        },
        {
          "indexed": false,
          "internalType": "uint256",
          "name": "votes",
          "type": "uint256"
        },
        {
          "indexed": false,
          "internalType": "uint256",
          "name": "id",
          "type": "uint256"
        },
        {
          "indexed": false,
          "internalType": "uint256",
          "name": "electionId",
          "type": "uint256"
        },
        {
          "indexed": false,
          "internalType": "address",
          "name": "wallet",
          "type": "address"
        }
      ],
      "name": "AddCandidate",
      "type": "event"
    },
    {
      "anonymous": false,
      "inputs": [
        {
          "indexed": false,
          "internalType": "string",
          "name": "name",
          "type": "string"
        },
        {
          "indexed": false,
          "internalType": "uint256",
          "name": "numberOfCandidates",
          "type": "uint256"
        },
        {
          "indexed": false,
          "internalType": "uint256",
          "name": "id",
          "type": "uint256"
        },
        {
          "indexed": false,
          "internalType": "uint256",
          "name": "dateOfCreation",
          "type": "uint256"
        },
        {
          "indexed": false,
          "internalType": "uint256",
          "name": "dateOfClose",
          "type": "uint256"
        }
      ],
      "name": "CreateElection",
      "type": "event"
    },
    {
      "anonymous": false,
      "inputs": [
        {
          "indexed": false,
          "internalType": "address",
          "name": "user",
          "type": "address"
        }
      ],
      "name": "Register",
      "type": "event"
    },
    {
      "anonymous": false,
      "inputs": [
        {
          "indexed": false,
          "internalType": "address",
          "name": "user",
          "type": "address"
        },
        {
          "indexed": false,
          "internalType": "uint256",
          "name": "_electionId",
          "type": "uint256"
        },
        {
          "indexed": false,
          "internalType": "uint256",
          "name": "_candidateId",
          "type": "uint256"
        }
      ],
      "name": "RegisterVoting",
      "type": "event"
    },
    {
      "inputs": [
        {
          "internalType": "string",
          "name": "_name",
          "type": "string"
        },
        {
          "internalType": "uint256",
          "name": "_electionId",
          "type": "uint256"
        },
        {
          "internalType": "address",
          "name": "_walletAddress",
          "type": "address"
        }
      ],
      "name": "addCandidate",
      "outputs": [],
      "stateMutability": "nonpayable",
      "type": "function"
    },
    {
      "inputs": [
        {
          "internalType": "uint256",
          "name": "",
          "type": "uint256"
        },
        {
          "internalType": "address",
          "name": "",
          "type": "address"
        }
      ],
      "name": "alreadyVotedInThisElection",
      "outputs": [
        {
          "internalType": "bool",
          "name": "",
          "type": "bool"
        }
      ],
      "stateMutability": "view",
      "type": "function"
    },
    {
      "inputs": [
        {
          "internalType": "uint256",
          "name": "",
          "type": "uint256"
        },
        {
          "internalType": "uint256",
          "name": "",
          "type": "uint256"
        }
      ],
      "name": "candidatesByElection",
      "outputs": [
        {
          "internalType": "string",
          "name": "name",
          "type": "string"
        },
        {
          "internalType": "uint256",
          "name": "votes",
          "type": "uint256"
        },
        {
          "internalType": "uint256",
          "name": "id",
          "type": "uint256"
        },
        {
          "internalType": "address",
          "name": "wallet",
          "type": "address"
        }
      ],
      "stateMutability": "view",
      "type": "function"
    },
    {
      "inputs": [],
      "name": "contractBalance",
      "outputs": [
        {
          "internalType": "uint256",
          "name": "",
          "type": "uint256"
        }
      ],
      "stateMutability": "view",
      "type": "function"
    },
    {
      "inputs": [
        {
          "internalType": "string",
          "name": "_name",
          "type": "string"
        }
      ],
      "name": "createElection",
      "outputs": [],
      "stateMutability": "nonpayable",
      "type": "function"
    },
    {
      "inputs": [
        {
          "internalType": "uint256",
          "name": "",
          "type": "uint256"
        }
      ],
      "name": "elections",
      "outputs": [
        {
          "internalType": "string",
          "name": "name",
          "type": "string"
        },
        {
          "internalType": "uint256",
          "name": "numberOfCandidates",
          "type": "uint256"
        },
        {
          "internalType": "uint256",
          "name": "id",
          "type": "uint256"
        },
        {
          "internalType": "uint256",
          "name": "dateOfCreation",
          "type": "uint256"
        },
        {
          "internalType": "uint256",
          "name": "dateOfClose",
          "type": "uint256"
        }
      ],
      "stateMutability": "view",
      "type": "function"
    },
    {
      "inputs": [],
      "name": "feeToVote",
      "outputs": [
        {
          "internalType": "uint256",
          "name": "",
          "type": "uint256"
        }
      ],
      "stateMutability": "view",
      "type": "function"
    },
    {
      "inputs": [
        {
          "internalType": "uint256",
          "name": "",
          "type": "uint256"
        }
      ],
      "name": "numberOfCandidatesByElection",
      "outputs": [
        {
          "internalType": "uint256",
          "name": "",
          "type": "uint256"
        }
      ],
      "stateMutability": "view",
      "type": "function"
    },
    {
      "inputs": [],
      "name": "numberOfElections",
      "outputs": [
        {
          "internalType": "uint256",
          "name": "",
          "type": "uint256"
        }
      ],
      "stateMutability": "view",
      "type": "function"
    },
    {
      "inputs": [],
      "name": "owner",
      "outputs": [
        {
          "internalType": "address",
          "name": "",
          "type": "address"
        }
      ],
      "stateMutability": "view",
      "type": "function"
    },
    {
      "inputs": [],
      "name": "register",
      "outputs": [],
      "stateMutability": "payable",
      "type": "function"
    },
    {
      "inputs": [
        {
          "internalType": "address",
          "name": "",
          "type": "address"
        }
      ],
      "name": "userRegistered",
      "outputs": [
        {
          "internalType": "bool",
          "name": "",
          "type": "bool"
        }
      ],
      "stateMutability": "view",
      "type": "function"
    },
    {
      "inputs": [
        {
          "internalType": "uint256",
          "name": "_electionId",
          "type": "uint256"
        },
        {
          "internalType": "uint256",
          "name": "_idOfCandidate",
          "type": "uint256"
        }
      ],
      "name": "vote",
      "outputs": [],
      "stateMutability": "nonpayable",
      "type": "function"
    },
    {
      "inputs": [],
      "name": "withdraw",
      "outputs": [],
      "stateMutability": "payable",
      "type": "function"
    }
  ],
  "bytecode": "0x608060405267016345785d8a000060075534801561001c57600080fd5b50600680546001600160a01b031916331790556110ac8061003e6000396000f3fe6080604052600436106100dd5760003560e01c80638b7afe2e1161007f578063b384abef11610059578063b384abef14610263578063bccbc36c14610283578063c235b3d5146102b3578063cdc389f6146102d357600080fd5b80638b7afe2e146101e95780638da5cb5b146101fe578063b1b2fafa1461023657600080fd5b80633ef501a1116100bb5780633ef501a1146101145780635e6fef011461016457806373963a9f1461019557806386cf8257146101c557600080fd5b806315cf4a5f146100e25780631aa3a008146101045780633ccfd60b1461010c575b600080fd5b3480156100ee57600080fd5b506101026100fd366004610da0565b6102e9565b005b610102610410565b61010261051b565b34801561012057600080fd5b5061014f61012f366004610e4d565b600360209081526000928352604080842090915290825290205460ff1681565b60405190151581526020015b60405180910390f35b34801561017057600080fd5b5061018461017f366004610e34565b610574565b60405161015b959493929190610f28565b3480156101a157600080fd5b506101b56101b0366004610e79565b61062a565b60405161015b9493929190610f5f565b3480156101d157600080fd5b506101db60075481565b60405190815260200161015b565b3480156101f557600080fd5b506101db6106ed565b34801561020a57600080fd5b5060065461021e906001600160a01b031681565b6040516001600160a01b03909116815260200161015b565b34801561024257600080fd5b506101db610251366004610e34565b60016020526000908152604090205481565b34801561026f57600080fd5b5061010261027e366004610e79565b61071f565b34801561028f57600080fd5b5061014f61029e366004610d7e565b60046020526000908152604090205460ff1681565b3480156102bf57600080fd5b506101026102ce366004610ddd565b6109d0565b3480156102df57600080fd5b506101db60055481565b6006546001600160a01b0316331461031c5760405162461bcd60e51b815260040161031390610f97565b60405180910390fd5b6005805490600061032c8361102f565b91905055506040518060a001604052808281526020016000815260200160055481526020014281526020014262093a806103669190610fdc565b9052600554600090815260026020908152604090912082518051919261039192849290910190610c3c565b50602082015181600101556040820151816002015560608201518160030155608082015181600401559050507f81bb74d1ba87bb5e5091d0eb0896bd5eb95349a27068e8e1dabdb9363fa4052d816000600554424262093a806103f49190610fdc565b604051610405959493929190610f28565b60405180910390a150565b3360009081526004602052604090205460ff16156104705760405162461bcd60e51b815260206004820152601760248201527f5573657220616c726561647920726567697374657265640000000000000000006044820152606401610313565b60075434146104cb5760405162461bcd60e51b815260206004820152602160248201527f596f75206e65656420746f2070617920302e3120657468657220746f20766f746044820152606560f81b6064820152608401610313565b33600081815260046020908152604091829020805460ff1916600117905590519182527feeda149c76076b34d4b9d8896c2f7efc0d33d1c7b53ea3c5db490d64613f603a910160405180910390a1565b6006546001600160a01b031633146105455760405162461bcd60e51b815260040161031390610f97565b60405133904780156108fc02916000818181858888f19350505050158015610571573d6000803e3d6000fd5b50565b60026020526000908152604090208054819061058f90610ff4565b80601f01602080910402602001604051908101604052809291908181526020018280546105bb90610ff4565b80156106085780601f106105dd57610100808354040283529160200191610608565b820191906000526020600020905b8154815290600101906020018083116105eb57829003601f168201915b5050505050908060010154908060020154908060030154908060040154905085565b600060208181529281526040808220909352908152208054819061064d90610ff4565b80601f016020809104026020016040519081016040528092919081815260200182805461067990610ff4565b80156106c65780601f1061069b576101008083540402835291602001916106c6565b820191906000526020600020905b8154815290600101906020018083116106a957829003601f168201915b5050505060018301546002840154600390940154929390929091506001600160a01b031684565b6006546000906001600160a01b0316331461071a5760405162461bcd60e51b815260040161031390610f97565b504790565b60008111801561073d57506000828152600160205260409020548111155b6107895760405162461bcd60e51b815260206004820152601760248201527f43616e64696461746520646f65736e27742065786973740000000000000000006044820152606401610313565b600082815260036020908152604080832033845290915290205460ff16156108025760405162461bcd60e51b815260206004820152602660248201527f456c6563746f7220616c726561647920766f74656420696e207468697320656c60448201526532b1ba34b7b760d11b6064820152608401610313565b60008181526002602052604090206004015442106108625760405162461bcd60e51b815260206004820152601a60248201527f456c656374696f6e20697320616c726561647920636c6f7365640000000000006044820152606401610313565b3360009081526004602052604090205460ff1615156001146108bf5760405162461bcd60e51b8152602060048201526016602482015275155cd95c881a5cc81b9bdd081c9959da5cdd195c995960521b6044820152606401610313565b6000828152602081815260408083208484529091529020600301546001600160a01b031633141561093d5760405162461bcd60e51b815260206004820152602260248201527f412063616e6469646174652063616e277420766f746520666f722068696d7365604482015261363360f11b6064820152608401610313565b60008281526020818152604080832084845290915281206001018054916109638361102f565b909155505060008281526003602090815260408083203380855290835292819020805460ff19166001179055805192835290820184905281018290527f382ffa2de6036e93f4a269fc7fe444cab05aca8ea259cbd366f7eff9f953d9409060600160405180910390a15050565b6006546001600160a01b031633146109fa5760405162461bcd60e51b815260040161031390610f97565b600082118015610a0c57506005548211155b610a585760405162461bcd60e51b815260206004820152601a60248201527f54686520656c656374696f6e20646f65736e27742065786974730000000000006044820152606401610313565b6000828152600260205260409020600401544210610ab85760405162461bcd60e51b815260206004820152601760248201527f456c656374696f6e20616c726561647920636c6f7365640000000000000000006044820152606401610313565b600082815260016020526040902054600511610b165760405162461bcd60e51b815260206004820152601e60248201527f54686572652061726520616c726561647920352063616e6469646174657300006044820152606401610313565b600082815260016020819052604090912054610b3191610fdc565b600083815260016020908152604080832084905580516080810182528781528083018490528082018590526001600160a01b038616606082015286845283835281842085855283529220825180519192610b9092849290910190610c3c565b50602082810151600183810191909155604080850151600280860191909155606090950151600390940180546001600160a01b0319166001600160a01b039095169490941790935560008781529390915290822001805491610bf18361102f565b91905055507f5c45abaed052272bacec7c947b2594bb347b369bc744218d9add25ddf1e548d9846000838686604051610c2e959493929190610ee8565b60405180910390a150505050565b828054610c4890610ff4565b90600052602060002090601f016020900481019282610c6a5760008555610cb0565b82601f10610c8357805160ff1916838001178555610cb0565b82800160010185558215610cb0579182015b82811115610cb0578251825591602001919060010190610c95565b50610cbc929150610cc0565b5090565b5b80821115610cbc5760008155600101610cc1565b80356001600160a01b0381168114610cec57600080fd5b919050565b600082601f830112610d0257600080fd5b813567ffffffffffffffff80821115610d1d57610d1d611060565b604051601f8301601f19908116603f01168101908282118183101715610d4557610d45611060565b81604052838152866020858801011115610d5e57600080fd5b836020870160208301376000602085830101528094505050505092915050565b600060208284031215610d9057600080fd5b610d9982610cd5565b9392505050565b600060208284031215610db257600080fd5b813567ffffffffffffffff811115610dc957600080fd5b610dd584828501610cf1565b949350505050565b600080600060608486031215610df257600080fd5b833567ffffffffffffffff811115610e0957600080fd5b610e1586828701610cf1565b93505060208401359150610e2b60408501610cd5565b90509250925092565b600060208284031215610e4657600080fd5b5035919050565b60008060408385031215610e6057600080fd5b82359150610e7060208401610cd5565b90509250929050565b60008060408385031215610e8c57600080fd5b50508035926020909101359150565b6000815180845260005b81811015610ec157602081850181015186830182015201610ea5565b81811115610ed3576000602083870101525b50601f01601f19169290920160200192915050565b60a081526000610efb60a0830188610e9b565b602083019690965250604081019390935260608301919091526001600160a01b0316608090910152919050565b60a081526000610f3b60a0830188610e9b565b90508560208301528460408301528360608301528260808301529695505050505050565b608081526000610f726080830187610e9b565b60208301959095525060408101929092526001600160a01b0316606090910152919050565b60208082526025908201527f596f7520617265206e6f7420616c6c6f77656420746f20646f2074686973206160408201526431ba34b7b760d91b606082015260800190565b60008219821115610fef57610fef61104a565b500190565b600181811c9082168061100857607f821691505b6020821081141561102957634e487b7160e01b600052602260045260246000fd5b50919050565b60006000198214156110435761104361104a565b5060010190565b634e487b7160e01b600052601160045260246000fd5b634e487b7160e01b600052604160045260246000fdfea26469706673582212204d5526a0c846b9e4e7853c3024b7f6da8e903f0c784f3a68c0754602e7a316c864736f6c63430008070033",
  "linkReferences": {},
  "deployedLinkReferences": {}
}